{
  "transactions": [
    {
      "hash": "0x0e3f850ee352d9f906c7b1dd15f2efbf10e9c0b770c69d300d99d5c6c2c256e5",
      "transactionType": "CALL",
      "contractName": null,
      "contractAddress": "0x779877a7b0d9e8603169ddbd7836e478b4624789",
      "function": "transferAndCall(address,uint256,bytes)",
      "arguments": [
        "0x9DdfaCa8183c41ad55329BdeeD9F6A8d53168B1B",
        "1000000000000000000",
        "0xd6e4f7d075850cba94c06576358e9a70bc7d25d5443bf3da18605ddfd00c575b"
      ],
      "transaction": {
        "from": "0xbd7f8cb7963b11078fc8e06ca5043815ed93b16a",
        "to": "0x779877a7b0d9e8603169ddbd7836e478b4624789",
        "gas": "0x14cbb",
        "value": "0x0",
        "input": "0x4000aea00000000000000000000000009ddfaca8183c41ad55329bdeed9f6a8d53168b1b0000000000000000000000000000000000000000000000000de0b6b3a764000000000000000000000000000000000000000000000000000000000000000000600000000000000000000000000000000000000000000000000000000000000020d6e4f7d075850cba94c06576358e9a70bc7d25d5443bf3da18605ddfd00c575b",
        "nonce": "0x422",
        "chainId": "0xaa36a7"
      },
      "additionalContracts": [],
      "isFixedGasLimit": false
    }
  ],
  "receipts": [
    {
      "status": "0x1",
      "cumulativeGasUsed": "0x13915a9",
      "logs": [
        {
          "address": "0x779877a7b0d9e8603169ddbd7836e478b4624789",
          "topics": [
            "0xddf252ad1be2c89b69c2b068fc378daa952ba7f163c4a11628f55a4df523b3ef",
            "0x000000000000000000000000bd7f8cb7963b11078fc8e06ca5043815ed93b16a",
            "0x0000000000000000000000009ddfaca8183c41ad55329bdeed9f6a8d53168b1b"
          ],
          "data": "0x0000000000000000000000000000000000000000000000000de0b6b3a7640000",
          "blockHash": "0xfcaff86119bb222ffefaba7621736a547a31853f7fc1764c552b1a8801c4ccd9",
          "blockNumber": "0x6d863a",
          "transactionHash": "0x0e3f850ee352d9f906c7b1dd15f2efbf10e9c0b770c69d300d99d5c6c2c256e5",
          "transactionIndex": "0x24b",
          "logIndex": "0x64",
          "removed": false
        },
        {
          "address": "0x779877a7b0d9e8603169ddbd7836e478b4624789",
          "topics": [
            "0xe19260aff97b920c7df27010903aeb9c8d2be5d310a2c67824cf3f15396e4c16",
            "0x000000000000000000000000bd7f8cb7963b11078fc8e06ca5043815ed93b16a",
            "0x0000000000000000000000009ddfaca8183c41ad55329bdeed9f6a8d53168b1b"
          ],
          "data": "0x0000000000000000000000000000000000000000000000000de0b6b3a764000000000000000000000000000000000000000000000000000000000000000000400000000000000000000000000000000000000000000000000000000000000020d6e4f7d075850cba94c06576358e9a70bc7d25d5443bf3da18605ddfd00c575b",
          "blockHash": "0xfcaff86119bb222ffefaba7621736a547a31853f7fc1764c552b1a8801c4ccd9",
          "blockNumber": "0x6d863a",
          "transactionHash": "0x0e3f850ee352d9f906c7b1dd15f2efbf10e9c0b770c69d300d99d5c6c2c256e5",
          "transactionIndex": "0x24b",
          "logIndex": "0x65",
          "removed": false
        },
        {
          "address": "0x9ddfaca8183c41ad55329bdeed9f6a8d53168b1b",
          "topics": [
            "0x1ced9348ff549fceab2ac57cd3a9de38edaaab274b725ee82c23e8fc8c4eec7a",
            "0xd6e4f7d075850cba94c06576358e9a70bc7d25d5443bf3da18605ddfd00c575b"
          ],
          "data": "0x00000000000000000000000000000000000000000000000d8d726b7177a8000000000000000000000000000000000000000000000000000d9b5322251f0c0000",
          "blockHash": "0xfcaff86119bb222ffefaba7621736a547a31853f7fc1764c552b1a8801c4ccd9",
          "blockNumber": "0x6d863a",
          "transactionHash": "0x0e3f850ee352d9f906c7b1dd15f2efbf10e9c0b770c69d300d99d5c6c2c256e5",
          "transactionIndex": "0x24b",
          "logIndex": "0x66",
          "removed": false
        }
      ],
      "logsBloom": "0x00000004000000000000000000000000000000000020000000000000020000000000000000000000000000000000000000000000000000000000000000000000000000000000000000000008000000000000000000000000000020000020000008000000000000800000000000000000000000000000000000002010000040000000000000000000000000038000800000010020000000000000000000000000000000000000000000000000010000000000000000000000000004000000000000008002000000000000000000000000000000000000000100000000000000000010000000000000800000000000000000000000000000000000000000000000",
      "type": "0x2",
      "transactionHash": "0x0e3f850ee352d9f906c7b1dd15f2efbf10e9c0b770c69d300d99d5c6c2c256e5",
      "transactionIndex": "0x24b",
      "blockHash": "0xfcaff86119bb222ffefaba7621736a547a31853f7fc1764c552b1a8801c4ccd9",
      "blockNumber": "0x6d863a",
      "gasUsed": "0xf0e5",
      "effectiveGasPrice": "0x149b8f775",
      "from": "0xbd7f8cb7963b11078fc8e06ca5043815ed93b16a",
      "to": "0x779877a7b0d9e8603169ddbd7836e478b4624789",
      "contractAddress": null
    }
  ],
  "libraries": [],
  "pending": [],
  "returns": {},
  "timestamp": 1732896206,
  "chain": 11155111,
  "commit": "02cf1a1"
}